:1000000000000120BD020000E5020000E702000040
:10001000E9020000EB020000ED0200000000000019
:10002000000000000000000000000000EF020000DF
:10003000F102000000000000F3020000F5020000E1
:1000400059130000F7020000F7020000F702000059
:10005000F7020000F702000045170000F702000059
:10006000F7020000F7020000F7020000F7020000AC
:10007000F7020000F7020000F7020000F70200009C
:10008000891B000035100000F7020000F702000095
:10009000F7020000F7020000F7020000F70200007C
:1000A000F7020000F7020000F7020000F70200006C
:1000B000F7020000F702000000000000000000004E
:1000C000F7020000F7020000F7020000F70200004C
:1000D000F7020000F7020000F70200000000000035
:1000E0000000000000000000000000000000000010
:1000F0000000000000000000000000000000000000
:1001000000000000000000000000000000000000EF
:1001100000000000000000000000000000000000DF
:1001200000000000000000000000000000000000CF
:1001300000000000000000000000000000000000BF
:1001400000000000000000000000000000000000AF
:10015000000000000000000000000000000000009F
:10016000000000000000000000000000000000008F
:10017000000000000000000000000000000000007F
:10018000000000000000000000000000000000006F
:10019000000000000000000000000000000000005F
:1001A000000000000000000000000000000000004F
:1001B000000000000000000000000000000000003F
:1001C000000000000000000000000000000000002F
:1001D000000000000000000000000000000000001F
:1001E000000000000000000000000000000000000F
:1001F00000000000000000000000000000000000FF
:1002000010B5054C237833B9044B13B10448AFF350
:1002100000800123237010BDF800002000000000C2
:100220001C2A000008B5034B1BB103490348AFF378
:10023000008008BD00000000FC0000201C2A000017
:10024000A3F5803A704700BF174B002B08BF134B34
:100250009D46FFF7F5FF00218B460F461348144AD1
:10026000121A02F0FBF90E4B002B00D098470D4BF1
:10027000002B00D098470020002104000D000D48FD
:10028000002802D00C48AFF3008002F0C3F9200030
:10029000290001F067FF02F0A9F900BF0000080083
:1002A000000000000000000000000120F800002015
:1002B0007C02002000000000000000000649074A00
:1002C000074B9B1A03DD043BC858D050FBDC01F000
:1002D000A1FFFFF7B9FF0000282A0000000000205E
:1002E000F8000020FEE7FEE7FEE7FEE7FEE7FEE798
:1002F000FEE7FEE7FEE7FEE74FF0A042044B1B5C83
:10030000D2F80405D840C04300F00100704700BF98
:100310008C290000044A115C01234FF0A0428B405D
:10032000C2F80C35704700BF8C290000044A115CEC
:1003300001234FF0A0428B40C2F80835704700BF40
:100340008C2900004FF0A04310B44FF480204FF4EC
:1003500000344FF400214FF48012C3F80845C3F86D
:100360000805C3F80815C3F808255DF8044B704765
:100370004FF0A04310B44FF480204FF400344FF4FA
:1003800000214FF48012C3F80C45C3F80C05C3F8E4
:100390000C15C3F80C255DF8044B7047074B4FF064
:1003A000A041185CD1F804350122824022EA030002
:1003B0001340C1F80805C1F80C3570478C290000BE
:1003C0000D2809D00E2809D00F2809D010280CBFFD
:1003D00003204FF0FF307047002070470120704726
:1003E00002207047C20710B41AD54FF0A043032271
:1003F0004FF40031C3F844274FF48024C3F8482752
:10040000C3F84C27C3F85027C3F808154FF48012DF
:100410004FF40021C3F80845C3F80815C3F80825B0
:1004200083070AD54FF0A0430C22C3F83427C3F842
:100430003827C3F83C27C3F840275DF8044B7047C2
:1004400038B5174B1D783DB3164A1168C0B200236A
:100450000C4604E00133AB4204F108041CD011F84F
:1004600033209042F6D101F063F96378A3F10103E0
:10047000B3FA83F35B09834200D038BD0A4BD3E95A
:1004800000231343F9D1094B094819680022BDE83C
:100490003840490800F0E8BB00231B78FFDE00BFAE
:1004A0001401002038010020200100201801002044
:1004B000000000202DE9F84FDFF83C92DFF83CA265
:1004C00099F80030002B39D0DFF83482874F0025AF
:1004D0004FF0010BD8F8006016F8350001F028F94C
:1004E00016F8354006EBC506610873787E5C14F09B
:1004F000010CA3F10103B3FA83F314BF320906F030
:100500000F025B09042A00F2D680DFE802F06D5B7F
:10051000301E0300834240F09380BCF1000F0CBFFB
:10052000F0230F2303EA06030CBF032630261E43E5
:100530007E5499F8002001359542CBDBDAE900239F
:10054000134340F0CA80BDE8F88F834200F0B380C7
:10055000BCF1000F0CBFF0230F2303EA06030CBF0E
:10056000042640261E437E5499F80020E3E7834288
:1005700040F0A480BCF1000F0CBFF0230F2303EA6E
:10058000060399F800200CBF032630261E437E5434
:10059000002AD3D0D8F800600023314603E093420C
:1005A00001F10801C7D016F83300A04203F101039E
:1005B000F5D14B68002BBED020460121984799F811
:1005C0000020B8E7834219BF0022134620220223ED
:1005D000BCF1000F16BF1346F0220F221640334322
:1005E0007B5499F80020A6E7834264D1BCF1000F48
:1005F00014BF0F23F02303EA060314BF10260126BD
:100600001E4300207E5400F0C1FBA4F12003C4F17E
:1006100020022BFA02F20BFA03F31343DAF800205C
:100620000BFA04F42243CAF80020DAF80420002070
:100630001343CAF8043000F0B1FB99F800207AE7C0
:10064000BCF1000F14BF0F23F0231E407E5499F815
:1006500000609EB1D8F800000023024603E0B342D8
:1006600002F108020AD010F83310A14203F101038D
:10067000F5D1536813B1002120469847002000F0BF
:1006800085FBA4F12003C4F120022BFA02F20BFA3D
:1006900003F31343DAF800200BFA04F422EA04020D
:1006A000CAF80020DAF80420002022EA0303CAF87E
:1006B000043000F073FB99F800203CE7BCF1000F18
:1006C0000CBFF0230F2303EA06030CBF01261026FC
:1006D0001E437E5499F800202DE7054B0548196804
:1006E0000022BDE8F84F490800F0BEBA28010020FA
:1006F000180100200000002014010020200100202B
:1007000038010020092A3FD9F0B583B014460546C8
:100710000E4600F0ADFE88B3204B214A1E70214BDF
:100720001560002120481C60102201F097FF1F4B2C
:1007300000200021741EC3E90001E4B236B31C4F4F
:1007400005EBC404032602E0A5421FD01C469DF819
:10075000063094F802C020788DF8046023F0070377
:100760003A4601A98DF806308DF805C000F08AFEE2
:10077000A4F108030028E7D003B0F0BD00F024FE88
:100780000028C9D003B0F0BD07207047094A0A48C5
:10079000002103B0BDE8F04000F04EBA1401002083
:1007A000380100201801002028010020200100202D
:1007B00041040000B50400009029000070B5084D08
:1007C0002B785BB1074E00243368012113F8340005
:1007D00000F04CFF2B780134A342F5D8002070BD07
:1007E000140100203801002000B585B00346002127
:1007F00001AA44F20100CDE90111039301F0AEFC1E
:1008000005B05DF804FB00BF30B48D688468C36830
:10081000CA68A54272EB03032CBF0120002030BC44
:10082000704700BF2DE9F04F2DED028B83B008EE2D
:10083000100A00F0BDFB40B1B04AD2E9003113F11B
:10084000807341F10001C2E9003118EE100A002165
:1008500000F0CAFBAA4D60B32B6853B3A94B2C68B8
:100860001B7823B31CB3A84800F0CEFBA34BA74AC8
:1008700019685B684018D2E9001243F1000388420E
:1008800073EB020203D210F1807043F10003D4E94C
:1008900002128842934180F06181B2F1FF3F08BFAC
:1008A000B1F1FF3F03D09A48214600F069FC0023D4
:1008B0002B6018EE100A012100F096FB002840F092
:1008C0002D81944801A900F019FC00283AD0914CE0
:1008D0004FF0FF384FF0FF3909E033B301A920464C
:1008E00000F03EFC01A9204600F008FC50B303785C
:1008F000012B11D0022BF0D1854E304600F054FC74
:1009000030B1C0E90289304600F04EFC0028F8D131
:100910007C4B01221A70E1E72B684168994200F094
:10092000B6807B4800F04AFCD8E74168D1E9022351
:10093000B3F1FF3F08BFB2F1FF3FCFD0744800F0E2
:100940001FFCCBE7724FDFF8C081DFF8B09138466B
:1009500000F030FC002852D0D0E90223B3F1FF3F71
:1009600008BFB2F1FF3F00F08E80296891B129687D
:10097000D1E9020182428B4145D22B68D3E902239F
:10098000B3F1FF3F08BFB2F1FF3F03D029683846FB
:1009900000F0F6FB384600F007FC044640465B4E8C
:1009A000D4E902BA00F030FBD9E9001332684018EC
:1009B00043F100039042726873EB020203D210F11C
:1009C000807043F10003BBEB00006AEB03030128D6
:1009D00073F1000325DBB0F5350F4ED25A464FF4C4
:1009E00096030021404600F05DFA88B10D281CD026
:1009F000002338462B6000F0DDFB0028ACD12B68CB
:100A0000002B00F0A28003B0BDEC028BBDE8F08F9C
:100A10002B68002B3ED02C6003B0BDEC028BBDE8F0
:100A2000F08F0021404600F0D3FA364B1B78002BA4
:100A3000DED0404600F0E8FAD9F80030D6E90012DE
:100A4000C018D9F8043043F10003884273EB020266
:100A500003D210F1807043F10003D4E902128842FE
:100A600093411CD2B2F1FF3F08BFB1F1FF3FBFD0AD
:100A70002146384600F084FBBAE7404600F0C4FA4D
:100A8000254A0244ABE7384600F08EFB5FE70023BF
:100A90002B6023E718EE100A00F0D2F9BBE7002024
:100AA00000F074F923692BB94FF0FF324FF0FF3398
:100AB000C4E90223002000F071F9D4E90530984719
:100AC000002000F063F92369A3B1D4E90212B2F166
:100AD000FF3F08BFB1F1FF3F0CD05B1842F10002AD
:100AE000A360E260002000F059F92146384600F08A
:100AF00047FB7DE7002000F051F979E74001002035
:100B0000C00100204801002020000020B801002082
:100B100098290000A4010020FFFFB4002748284EB8
:100B200000F072FA274B1A685B688018D6E9001249
:100B300043F10003884273EB020203D210F180708C
:100B400043F10003C6E90003BBE618EE100A03B048
:100B5000BDEC028BBDE8F04F00F076B9002000F04C
:100B600015F923692BB94FF0FF324FF0FF33C4E979
:100B70000223002000F012F9D4E905309847002044
:100B800000F004F92369A3B1D4E90212B2F1FF3FE6
:100B900008BFB1F1FF3F0CD05B1842F10002C4E97D
:100BA0000232002000F0FAF80748214600F0E8FA87
:100BB0007DE6002000F0F2F879E600BF200000207A
:100BC000B8010020400100209829000010B5134B07
:100BD00013491C68134882B008235822019400F07E
:100BE00033FA044610B1204602B010BD0E4A0F4839
:100BF00001A900F0DDF804460028F4D10B480121DA
:100C000000F0CCF901231946094A084800F020F900
:100C1000084B012220461A7002B010BD9429000032
:100C20004C010020A4010020250800002000002025
:100C3000FFFF7F00480100206AB19FED097BA1F111
:100C400001010368B1FA81F1490983ED027BC3E92F
:100C50000412002070470720704700BFAFF30080E8
:100C6000FFFFFFFFFFFFFFFF70B5044682B00020CB
:100C700016460D4600F08AF8D4E90223B3F1FF3F8F
:100C800008BFB2F1FF3F05D0002000F087F8002038
:100C900002B070BD1C4800F0B7F91C4B1C4A196823
:100CA0005B684018D2E9001243F10003884273EBFD
:100CB000020223D3281843F10003C4E902030020F1
:100CC00000F06CF82369A66103B12561114801A900
:100CD00000F0D2F9034670B100250E481D705C602B
:100CE00001A900F0FBF90028D2D0074800F090F9E4
:100CF000284602B070BD042002B070BD10F18070B3
:100D000043F10003D6E700BF20000020400100208F
:100D1000B8010020A401002010B5044682B00020D4
:100D200000F034F8D4E90223B3F1FF3F08BFB2F179
:100D3000FF3F1BD04FF0FF334FF0FF32C4E90223D7
:100D4000002000F02BF80F4801A900F095F90346A8
:100D500048B101220B481A705C6001A900F0BEF98D
:100D600050B902B010BD042002B010BD002000F048
:100D700015F8002002B010BD034800F049F900202A
:100D800002B010BDA40100202000002072B6024A6B
:100D90001368013313607047C4010020034A1368CD
:100DA000013B136003B962B6704700BFC401002065
:100DB00010B41F4C437944F823201E4C04EBC303AA
:100DC0001B798BBB03680A88C3F8082590F90430A7
:100DD0008A78002B20DB03F16043520103F5614365
:100DE000D2B283F8002390F90430002B09DB1249BA
:100DF0004FEA531C012203F01F0302FA03F341F8E8
:100E00002C30437904EBC302012144F83300117103
:100E100000205DF8044B7047084903F00F035201AE
:100E20001944D2B20A76DEE708205DF8044B704719
:100E3000D0010020C801002000E100E0FCEC00E04F
:100E4000036801221A607047036801225A607047E4
:100E500070B405684FF480348C40C5F808430568C9
:100E600001F1500CC5F848434FEA8C0C05681FFA95
:100E70008CFC002645F80C6083B055F80C500195A9
:100E8000019D056801F5A87122F07F4245F82120F7
:100E90000268C2F8444313B10368C3F8044303B0C3
:100EA00070BC70472DE9F0474FF4803622F07F4741
:100EB00002688E40C2F848630268C2F8086302689C
:100EC00002EB810C044601F15005D2F80405DCF870
:100ED0004025CCF84005AD00ADB2121A20684FF0A5
:100EE000000840F8058082B04059009022F07F420F
:100EF000012A00988A46994641D02268D2F80455C2
:100F0000C2F844637A1B22F07F42012A0AF5A871D5
:100F100025D0236843F821702068D0F804557B1B46
:100F2000C9F1FF12013B02F57F4223F07F439A4251
:100F300011D343B1C0F8446323680020C3F80463AD
:100F400002B0BDE8F087013740F821702068D0F882
:100F500004359D42EED00D2002B0BDE8F087236835
:100F6000013743F821700C4B4FF4806043F00103CC
:100F700098472068D0F804359D42DBD0EBE7064A5D
:100F80004FF4806042F001029047226842F80580E9
:100F900052590192019AB0E7B02900000268022379
:100FA000C2F8443311B10268C2F80433704700BF7D
:100FB0000368D3F8040100B97047002282B0C3F877
:100FC0000421D3F804310193019B012002B0704742
:100FD00002684FF4803303FA01F1C2F84813036842
:100FE000C3F80813704700BF50318900036889B205
:100FF000585800B9704700225A5082B05B5801938C
:10100000019B012002B070470368D3F804057047C4
:1010100090F90430002B09DB5A09054803F01F033F
:101020000121403201FA03F340F82230704700BF3B
:1010300000E100E0024A034B10681B68184700BF3C
:10104000C8010020D001002099B110B4B2FBF3F424
:1010500003FB1424A4B244B9C0E900148460828163
:10106000C38120465DF8044B704709205DF8044BAE
:1010700070470E20704700BF10B483B050E8013FA6
:101080001FFA83FCC489A4448489A44528BFACEB1F
:10109000040C0489A44502BFBFF32F8F002207E090
:1010A000CCEA030C40E801C4002CE7D14FF0010268
:1010B0008DF803200193019C9DF803200C6032B150
:1010C000006810FA84F003B05DF8044B704702F03A
:1010D000FF03184603B05DF8044B70470A884B883D
:1010E0009A4201D00020704750E8012FC2EA024224
:1010F00040E80123002BF7D10120704710B483B0E2
:1011000050E8023F1FFAA3FCC488A44502BFBFF306
:101110002F8F00220EE0C489A4448489A44528BFEF
:10112000ACEB040CC3EA0C4C40E802C4002CE7D141
:101130004FF001028DF803200193019C9DF80320DC
:101140000C6032B1006800EB144003B05DF8044B52
:10115000704702F0FF03184603B05DF8044B704778
:101160000A884B889A4201D00020704750E8022F2D
:10117000C2EA224240E80223002BF7D10120704747
:1011800070B54468064620680D4618B908E0246822
:10119000206828B1B368294698470028F7D120680D
:1011A0002860256070BD00BF4368186808B10268F8
:1011B0001A60704743681868704700BF4368186832
:1011C00018B908E00346006828B18142FAD10A68DC
:1011D0001A6001207047704710B568B90E4CA368BB
:1011E000012262703BB1D3E900230020A26098473E
:1011F000A368002BF7D110BD0128FCD1064C236950
:10120000A070002BF7D0D3E900230120226198477A
:101210002369002BF7D110BDD401002010B50D4C6F
:10122000237882B043B185200B4BD3F800340BB147
:101230000123A37002B010BD08486360A36023615E
:10124000E36000F03BF8019000F044F801230198BE
:101250002370E9E7D401002000000140D91100000B
:1012600038B5154DAB78044673B110B14368012011
:1012700098470020FFF78AFDEB680133EB60002000
:10128000BDE83840FFF78ABD03F0FF00FFF77EFDA1
:1012900064B12A6942B1944208D0134601E09C42ED
:1012A00004D01B68002BFAD122602C61EB68002B64
:1012B000E2D100F021F8DFE7D4010020044A1379DD
:1012C00023B901211060918018467047852070472E
:1012D000E8010020074B1A68D20704D4C02283F823
:1012E000002301221A604FF080430122C3F8182521
:1012F000704700BF00E100E010B44FF080430022CF
:10130000C3F8042183B0D3F8042101921049019855
:101310000222C3F80423D1F8FC000E4A40F0807387
:10132000C1F8FC30146844F001031360516853683D
:101330005B1AB3F50A5FFAD3054914604FF0804396
:101340000122C1F8FC009A6003B05DF8044B7047BD
:1013500000ED00E0001000E010B54FF0804382B0D7
:10136000D3F8002162B10021164AC3F80011D3F866
:101370000011507900910121009CC3F80813A8B115
:101380004FF08043D3F80421CAB10022C3F80421EE
:10139000D3F80421019202210A4A0198C3F80813E4
:1013A0001368012002B0BDE810401847136851715E
:1013B00098474FF08043D3F80421002AE5D102B0CA
:1013C00010BD00BFE801002030B5254C94F858301E
:1013D00083B0002B40D16FF02F0004F1300304F1F3
:1013E000500C001B4FF0FF31C21821FA02F2D20755
:1013F00048BF197001336345F6D14FF0FF304FF00D
:10140000FF314FF0FF33C4E90001042200211548E9
:101410002365C4E90233C4E90433C4E90633C4E9EB
:101420000833C4E90A3301F019F90F4BC02283F8DD
:10143000062340221A600D4B0020C3F87C01D3F82C
:101440007C210192019D4FF00042012184F8581047
:10145000C3F8042303B030BD082003B030BD00BF83
:10146000F00100204402002000E100E000600040A4
:10147000034B93F85800003818BF0120704700BF95
:10148000F001002070B5774B03EB000E9EF930C0E1
:10149000BCF1000F01DB082070BD91F802C01CF008
:1014A000020FCCF340055DD11C6A013400F0D280FC
:1014B0005C6A013400F0C4804FF00C0E4FF00A0C4F
:1014C00053F82C40013459D00CF10104744547D233
:1014D00053F82460013600F0AB800CF1020474452F
:1014E0003ED253F82460013600F0A2800CF10306CE
:1014F000764535D253F8264001343ED00CF104062F
:1015000076452DD253F82640013436D00CF105062D
:10151000764525D253F8264001342ED00CF106062C
:1015200076451DD253F82640013426D00CF107062B
:10153000764515D253F8264001341ED00CF108062A
:1015400076450DD253F82640013416D00CF1090C23
:10155000F44505D2DC6A013408BF4FF00B0C0DD006
:10156000042070BD1C68013464D05C6801346ED006
:101570004FF0080E4FF0020CA2E7B44643F82C20BF
:101580001A184FFA8CFE82F830E015B99C448CF89A
:1015900048008A78540715D4D50740D5820002F157
:1015A000A042D2F8004724F00204C2F800472E4DB2
:1015B000C40800F0070C2E5D012202FA0CF232433F
:1015C0002A558A7812F002021CD04FEA8E0303F1EA
:1015D000804303F5C0430978D3F8104524F4473419
:1015E00024F44074C3F8104502020904D3F810052E
:1015F00001F4403102F4F8520A430243C3F81025C3
:10160000002070BDAEF1080E43FA8EF30C7893F80B
:101610005010104641EA841283F8502070BD4A7879
:101620004FF0A04400F5E075920044F82520BEE795
:10163000A446A3E71A6000228EF830209646A8E759
:101640004FF0090C8EF830C05A62E6469EE74FF024
:10165000010C93E74FF0080C8EF830C01A62E64692
:1016600094E700BFF00100204402002030B42E4C6B
:1016700004EB000C82B09CF93030072B1EDD083BD8
:1016800044FA83F393F850309B09032B41D0012B8C
:101690000CBF4FF400334FF44033800000F1A04002
:1016A000D0F8002722F44032C0F80027D0F80027F5
:1016B0001343C0F8003702B030BC7047DAB2072AD3
:1016C000F9D8980000F1804003F1400200F5C040D5
:1016D00052B29200D0F8105592B202F1804202F557
:1016E000C04245F00105C0F8105500201060126896
:1016F0000192019A0029DED09CF9302054F8222072
:10170000002AD8D00949012202FA03F3C1F80433B0
:10171000D1E74FF0A043D3F81035C34003F00103E5
:1017200002331B04B9E700BFF00100200060004055
:101730004FF0A043D3F8103523FA00F000F0010079
:10174000704700BFF0B585B01D4A00230193D2F861
:101750000011012900F0E5811E46194BD3F8042140
:10176000012A00F0CF81164BD3F80821012A00F09E
:10177000B881134BD3F80C21012A00F0A381104B40
:10178000D3F81021012A00F08E810D4BD3F81421DB
:10179000012A00F079810A4BD3F81821012A00F0C0
:1017A0006481074BD3F81C21012A0BD0044BD3F8DA
:1017B0007C21012A00F0C28126BB05B0F0BD00BF2C
:1017C00000600040D3F804231206EFD50022C3F8CE
:1017D0001C21D3F81C110291D3F87C110298012925
:1017E00046F080060ED1C3F87C21D3F87C21039209
:1017F0004FF0A043039AD3F820250192C3F8202587
:1018000046F00046BE4F01250024A30003F18043AB
:101810002E4203F5C0434FEA45050BD0D3F810051F
:1018200057F82420D3F81015C0F30420C1F3014168
:1018300002B190470134082CE7D1002EBDDAB04C3C
:1018400001254FF0A04694F95000471C3DD0C0F34D
:10185000C20310336B44C1B213F80C2C00F0070321
:1018600005FA03F31A4200F03F002ED0830003F183
:10187000A04305FA00F7D3F80027D3F800C72CF4EB
:10188000403CC3F800C7C2F30142D3F800C7022AA4
:101890000CBF4FF4403E4FF4003E4CEA0E0CC3F830
:1018A00000C72318C6F8207593F9303054F8233058
:1018B0005BB18909032900F06581022A00F05F818C
:1018C000032A02D1022900F05D8194F95100411CE4
:1018D0003DD0C0F3C20310336B44C1B213F80C2CDB
:1018E00000F0070305FA03F31A4200F03F002ED080
:1018F000830003F1A04305FA00F7D3F80027D3F8DB
:1019000000C72CF4403CC3F800C7C2F30142D3F82F
:1019100000E7022A0CBF4FF4403C4FF4003C4CEA75
:101920000E0CC3F800C72318C6F8207593F93030A1
:1019300054F823305BB18909032900F01981022A88
:1019400000F01381032A02D1022900F0118194F9D9
:101950005200421C3DD0C0F3C20310336B44C1B2ED
:1019600013F80C2C00F0070305FA03F31A4200F0F9
:101970003F002ED0830003F1A04305FA00F7D3F80F
:101980000027D3F800C72CF4403CC3F800C7C2F3CB
:101990000142D3F800E7022A0CBF4FF4403C4FF459
:1019A000003C4CEA0E0CC3F800C72318C6F820759B
:1019B00093F9303054F823305BB18909032900F0E2
:1019C000D280022A00F0CC80032A02D1022900F042
:1019D000CA8094F95300431C3DD0C0F3C2031033B6
:1019E0006B44C1B213F80C2C00F0070305FA03F3A3
:1019F0001A4200F03F002ED0830003F1A04305FA05
:101A000000F7D3F80027D3F800C72CF4403CC3F804
:101A100000C7C2F30142D3F800E7022A0CBF4FF41B
:101A2000403C4FF4003C4CEA0E0CC3F800C72318AE
:101A3000C6F8207593F9303054F823305BB189092A
:101A4000032900F09A80022A00F09480032A02D130
:101A5000022900F09280D6F820350193C6F820358F
:101A6000002B7FF4F0AE05B0F0BDD3F8042351068F
:101A70007FF597AE0022C3F81821D3F818310293EE
:101A8000029B46F040068CE6D3F8042390067FF5CF
:101A900082AE0022C3F81421D3F814310293029BC2
:101AA00046F0200677E6D3F80423D4067FF56DAE22
:101AB0000022C3F81021D3F810310293029B46F0A4
:101AC000100662E6D3F8042315077FF558AE00220E
:101AD000C3F80C21D3F80C310293029B46F00806A0
:101AE0004DE6D3F8042357077FF543AE0022C3F831
:101AF0000821D3F808310293029B46F0040638E629
:101B0000F0010020D3F8042392077FF52CAE0022C9
:101B1000C3F80421D3F804310293029B46F0020675
:101B200021E6D2F8046316F001063FF416AEC2F8BF
:101B30000031D2F800310293029B0EE60022C3F876
:101B40007C21D3F87C2103924FF0A043039AD3F871
:101B500020250192C3F82025002E3FF470AE4FE6F9
:101B600001297FF436AF984733E701297FF4EFAEC0
:101B70009847ECE601297FF46EAF98476BE701299F
:101B80007FF4A3AE9847A0E610B5084CD4F8003116
:101B900082B04BB1064B1B6898470023C4F8003154
:101BA000D4F800310193019B02B010BD0000014048
:101BB0005002002070B5114B114A1D781160DDB93B
:101BC000104E027801211970C6F80C2541680446B0
:101BD0004FF47A720023C803490C00F049FDC6F89F
:101BE0000405237A084A5B01DBB282F810334FF414
:101BF00080331360284670BD082070BD4D02002060
:101C0000500200200000014000E100E0044B0549C3
:101C100001220220C3F804231A600870704700BF35
:101C2000000001404D02002010B504460020FFF7DF
:101C3000ADF80E4A1378072B11D80D492370581CA4
:101C40001070D1F80805012202FA03F30343C1F82A
:101C5000083500240020FFF7A1F8204610BD042419
:101C60000020FFF79BF8204610BD00BF4C0200206B
:101C700000000140034B044A00F5C07043F82020E7
:101C8000704700BF000001403546526E0220FEF74B
:101C900085BB00BF2DE9F04706460D46FEF790FBD9
:101CA000032805D8012D04461AD0022D27D00DB1E6
:101CB000BDE8F0871B48FFF72FF81B4B1B4A04EBCE
:101CC00044010B44125D9D78AA42F1D1002DEFD062
:101CD000174B1B68002BEBD02846BDE8F047184790
:101CE000114F00EB4003FA18FD5C53784FEA4008AF
:101CF0005BB9A04447440D4BBA781A55E6E70A4B46
:101D000000EB40041C446578E0E7DFF828900548C4
:101D10004A464FF48041FEF7A7FF0028E9D189F831
:101D20000060E6E74800002058020020740200200E
:101D30006C0200205402002010B50078FEF740FB32
:101D400003280BD8064B00EB40001844407828B11C
:101D5000044B1B6813B1BDE81040184710BD00BF0D
:101D6000580200206C02002038B5BA4D2B7804468A
:101D70006BB1B94B1B7800202870002B4DD0FEF7BB
:101D8000D5FA0120FEF7D2FA0320FEF7CFFA172C7E
:101D900000F25E81DFE814F0EB00630063009F0057
:101DA000AC00B900CB009700500044005000440044
:101DB0007A0018001800180018001800D90018013F
:101DC000810000015C005C00A448FEF7A5FFD4F18F
:101DD0001104054600F02681002840F02381012CE3
:101DE00014D0C82303FB04F429464FF400434FF4F6
:101DF0007A70C4FB03014FF4FA62002300F038FC50
:101E00002A4601469548FEF72FFF05460220FEF7B9
:101E100081FA914B01221A701FE0FEF793FAB6E7A0
:101E200001202870FEF7BAFABDE838408C4800223D
:101E30004FF40051FEF718BF01202870FEF7AEFAEC
:101E4000BDE838408648002240F26661FEF70CBFCC
:101E5000FEF78EFA834B00251C70284638BD002003
:101E6000FEF74AFA002840F0C380FEF753FA40F626
:101E7000CD4141F69A13022C18BF1946794B1C70BC
:101E8000BDE8384076480022FEF7EEBEFEF770FA55
:101E9000744B0C221A700025DFE76F4B1B78002B68
:101EA00000F0D3800020FEF741FA0120FEF73EFA51
:101EB0000320FEF73BFA0120FEF72CFA694B1422AF
:101EC0001A700025C9E70020FEF724FA654B0722A7
:101ED0001A700025C1E70020FEF70EFA002840F036
:101EE0009B80FEF717FA40F6CD415E4B0324C6E710
:101EF0000020FEF701FA002840F08880FEF70AFA79
:101F000041F69A11574B0424B9E70020FEF7F4F983
:101F1000002877D1FEF7FEF9524B514805241C707A
:101F2000BDE83840002240F6CD41FEF79DBE0020BE
:101F3000FEF734FA4B4B4A4806241C70BDE8384083
:101F4000002240F26661FEF78FBE434B1B78002BE8
:101F500078D00020FEF7EAF90120FEF7E7F9032028
:101F6000FEF7E4F93F4B12221A70002575E73A4B51
:101F70001B78002B60D00020FEF7D8F90120FEF777
:101F8000D5F90320FEF7D2F93548FEF7C5FE354BEB
:101F9000002205461A7060E72F4B1B78002B48D0B3
:101FA0000020FEF7C3F90120FEF7C0F90320FEF779
:101FB000BDF90020FEF7AEF90120FEF7ABF9294B81
:101FC00015221A70002548E7234B1B78BBB300206D
:101FD000FEF7ACF90120FEF7A9F90320FEF7A6F9F8
:101FE0000020FEF797F91F4B13221A70002534E7E3
:101FF0000020FEF79BF9022C47F2333118BF4FF453
:1020000080313BE70020FEF791F985E70020FEF7DD
:102010008DF94FF4803175E70020FEF787F943F220
:10202000333162E70220FEF781F90B4B00221A7070
:1020300013E7FEF787F9BCE7FEF784F9A4E7FEF79C
:1020400081F9CDE7FEF77EF98CE7FEF77BF932E701
:10205000002502E768020020550200202800002029
:102060006800002070020020044B1B68DB0700D4CE
:102070007047034B1878FFF777BE00BF640200205B
:102080007002002038B5244B244A196081070446A9
:10209000106004D410F001052CD1284638BD204B27
:1020A00020480E210F221970DA7010211122997127
:1020B0005A72042140F23332FEF724FB054630B158
:1020C000E207EAD50120FEF78DF9284638BDFEF774
:1020D00075FB05460028F3D10146134A1348FEF765
:1020E000ABFDE3070546D8D50120FEF77BF9002DAF
:1020F000D3D102E00120FEF775F90D4A0D48002109
:10210000FEF79AFD05460028C7D1BDE838400A4AC7
:102110000A480121FEF790BD6C02002064020020F5
:1021200058020020B8290000391D0000DC290000F9
:1021300069200000E02900008D1C0000D829000063
:10214000FEF73CBBFEF7FEB80E2800D07047024BEE
:102150001878FFF78FBD00BF7802002008B5FEF7A2
:10216000F1F8FEE770B584B0FFF758F8002835D1D4
:102170000020FFF775F8FEF729FD00283DD1204922
:102180000220FFF77FFFA8BB0120FEF72BF91D4AB5
:1021900007CA01AB83E807001B491846FFF70AFD91
:1021A00028BB1A48FFF740FDF0B9194DFFF72EFD87
:1021B000002645F00105C8244FF47A40A847013CA9
:1021C000FAD130460136FEF7A5F8042EF3D1FFF719
:1021D000B7FF30B940BF20BF20BFFBE7FEF704FBCD
:1021E000C6E7FEF701FBF5E7FEF7FEFADDE7FEF7CF
:1021F000FBFAD6E7FEF7F8FAC6E7FEF7F5FABEE710
:1022000049210000E4290000452100007802002057
:10221000F029000010B44FF08053D3F830315A1C2D
:1022200004BF4FF0704393F8E03F062B08D14FF006
:102230008053C24AD3F82433C3F30423C2F8403591
:102240004FF0704393F8E02F062A00F024814FF0FE
:102250008053D3F830315C1C04BF4FF0704393F8C7
:10226000E03F062B09D14FF080534FF08042D3F866
:102270004432C3F34233C2F83C354FF0704393F815
:10228000E02F062A00F0F2804FF08053D3F830316F
:10229000581C04BF4FF0704393F8E03F062B08D161
:1022A0004FF080430022C3F80C21C3F81021C3F87B
:1022B00038254FF0704393F8E02F062A00F0B380E2
:1022C0004FF08052D2F83031591C27D0062BD2F86B
:1022D00034212DD09A4AD2F8883043F47003C2F8E2
:1022E0008830BFF34F8FBFF36F8F4FF08053D3F819
:1022F0003021062A00F0E0804FF01023D3F80022AE
:10230000002AC0F23B81D3F80432002BC0F23681A0
:102310008C4B8D4A1A605DF8044B70474FF0704249
:1023200092F8E01FD2F8E82F0629D3D1C2F30312A6
:10233000033A042A40F2DA804FF08053834AD3F8FC
:102340000414C2F82015D3F80814C2F82415D3F8E1
:102350000C14C2F82815D3F81014C2F82C15D3F8B1
:102360001414C2F83015D3F81814C2F83415D3F881
:102370001C14C2F84015D3F82014C2F84415D3F841
:102380002414C2F84815D3F82814C2F84C15D3F811
:102390002C14C2F85015D3F83014C2F85415D3F8E1
:1023A0003414C2F86015D3F83814C2F86415D3F8A1
:1023B0003C14C2F86815D3F84014C2F86C15D3F871
:1023C0004414D3F83031C2F870155C1C04BF4FF0D0
:1023D000704393F8E03F062B7FF47CAF4FF08052C0
:1023E0004FF08041D2F85832D2F8302103F04F0339
:1023F000501CC1F8E43E7FD0062A7FF46BAFD1F8C1
:102400000034DA0700F184804FF08053D3F8343180
:10241000033B042B64D94E4AD2F83C3743F4806323
:10242000C2F83C3756E7D3F8E83FC3F30313033B46
:10243000042B3FF645AF474AD25C22B14FF08042B1
:102440000321C2F8A015444AD35C002B3FF438AFF7
:10245000424B0524012000213F22C3F81046C3F857
:102460008806C3F81816C3F8142629E7D3F8E83FFE
:10247000C3F30313033B042B3FF606AF384AD35C88
:10248000002B3FF401AF2E4AD2F8FC3023F08073CA
:10249000C2F8FC30F8E6D3F8E83FC3F30313033B7C
:1024A000042B3FF6D4AE2F4AD35C002B3FF4CFAEC3
:1024B0002D4B2E4A5A67CAE6D3F83431033B042B1E
:1024C00008D94FF010224FF08043D2F80822C3F809
:1024D000582511E7264AD35C002B3FF40DAFF0E7F7
:1024E000244AD35C002B3FF4F5AE94E722498A5C82
:1024F000002A3FF46AAF1FE74FF0704393F8E03FC4
:10250000062B7FF4E7AED1F80034DB077FF5E2AEAF
:102510004FF080534FF08042D3F830316FF001011B
:10252000062BC2F800147FF4D5AE4FF08053D3F8D9
:102530003431033B042B3FF66EAFD1E7003001404E
:1025400000ED00E0880000200090D00300C00040B3
:1025500000100040102A0000102A00000050004027
:10256000102A0000102A000000C007400DF0ADBA8C
:10257000082A0000002A0000F8290000184A012358
:10258000C2F80435D2F80034002BFBD04FF01023F2
:102590001521134AC3F80012D2F80034002BFBD0E7
:1025A0004FF0102315210E4AC3F80412D2F800345C
:1025B000002BFBD000230A49C2F80435D1F80034BF
:1025C000002BFBD0BFF34F8F0649074BCA6802F4BC
:1025D000E0621343CB60BFF34F8F00BFFDE700BF46
:1025E00000E0014000ED00E00400FA0508B5074BEB
:1025F000044613B10021AFF30080054B1868836ACD
:1026000003B19847204600F031F800BF00000000F9
:10261000182A000070B50D4D0D4C641BA410002647
:10262000A64209D10B4D0C4C00F0A4F9641BA41078
:102630000026A64205D170BD55F8043B98470136E7
:10264000EEE755F8043B98470136F2E7EC0000202E
:10265000EC000020EC000020F000002002440346C3
:10266000934200D1704703F8011BF9E7FEE700BF72
:1026700053B94AB9002908BF00281CBF4FF0FF31E9
:102680004FF0FF3000F074B9ADF1080C6DE904CEE5
:1026900000F006F8DDF804E0DDE9022304B070473D
:1026A0002DE9F047089D04468E46002B4DD18A4205
:1026B000944669D9B2FA82F252B101FA02F3C2F138
:1026C000200120FA01F10CFA02FC41EA030E9440C9
:1026D0004FEA1C48210CBEFBF8F61FFA8CF708FBEA
:1026E00016E341EA034306FB07F199420AD91CEBC2
:1026F000030306F1FF3080F01F81994240F21C81F4
:10270000023E63445B1AA4B2B3FBF8F008FB10333B
:1027100044EA034400FB07F7A7420AD91CEB040470
:1027200000F1FF3380F00A81A74240F20781644440
:10273000023840EA0640E41B00261DB1D4400023C5
:10274000C5E900433146BDE8F0878B4209D9002D29
:1027500000F0EF800026C5E9000130463146BDE8B3
:10276000F087B3FA83F6002E4AD18B4202D382421D
:1027700000F2F980841A61EB030301209E46002DCC
:10278000E0D0C5E9004EDDE702B9FFDEB2FA82F221
:10279000002A40F09280A1EB0C014FEA1C471FFA7F
:1027A0008CFE0126200CB1FBF7F307FB131140EA66
:1027B00001410EFB03F0884208D91CEB010103F133
:1027C000FF3802D2884200F2CB804346091AA4B2F5
:1027D000B1FBF7F007FB101144EA01440EFB00FEC9
:1027E000A64508D91CEB040400F1FF3102D2A6452E
:1027F00000F2BB800846A4EB0E0440EA03409CE7CD
:10280000C6F12007B34022FA07FC4CEA030C20FA79
:1028100007F401FA06F31C43F9404FEA1C4900FA99
:1028200006F3B1FBF9F8200C1FFA8CFE09FB181116
:1028300040EA014108FB0EF0884202FA06F20BD989
:102840001CEB010108F1FF3A80F08880884240F2D9
:102850008580A8F102086144091AA4B2B1FBF9F01D
:1028600009FB101144EA014100FB0EFE8E4508D918
:102870001CEB010100F1FF346CD28E456AD902389D
:10288000614440EA0840A0FB0294A1EB0E01A14282
:10289000C846A64656D353D05DB1B3EB080261EBF0
:1028A0000E0101FA07F722FA06F3F1401F43C5E9CA
:1028B000007100263146BDE8F087C2F12003D84000
:1028C0000CFA02FC21FA03F3914001434FEA1C4742
:1028D0001FFA8CFEB3FBF7F007FB10360B0C43EA34
:1028E000064300FB0EF69E4204FA02F408D91CEBE4
:1028F000030300F1FF382FD29E422DD902386344E2
:102900009B1B89B2B3FBF7F607FB163341EA034181
:1029100006FB0EF38B4208D91CEB010106F1FF38D0
:1029200016D28B4214D9023E6144C91A46EA0046C7
:1029300038E72E46284605E70646E3E61846F8E659
:102940004B45A9D2B9EB020864EB0C0E0138A3E7A2
:102950004646EAE7204694E74046D1E7D0467BE783
:10296000023B614432E7304609E76444023842E7FB
:10297000704700BFF8B500BFF8BC08BC9E46704762
:10298000F8B500BFF8BC08BC9E467047111213147E
:102990000000002001000600000000003C010020B3
:1029A0000908000000000000000000000000000016
:1029B0000338FDD8704700000D000300951C00008F
:1029C0000E000300951C00000F000300951C000082
:1029D00010000300951C0000280000204800002083
:1029E0006800002001000000D00700000600000081
:1029F0000338FDD87047000000000101010000000D
:102A000000000001010000000000000001000000C3
:102A100001000000000000008C0000200000000009
:082A200020D8FF7F0100000037
:102A28000000000000000000FFFFFFFFFFFFFFFFA6
:102A3800000000000000000000000000000000008E
:102A48000010014011000400000000000000000018
:102A5800FFFFFFFFFFFFFFFF000000000000000076
:102A6800000000000000000000000000000000005E
:102A7800FFFFFFFFFFFFFFFF000000000000000056
:102A8800000000000000000000000000000000003E
:102A9800FFFFFFFFFFFFFFFF000000000000000036
:102AA80000000000000000000090D00300000000BB
:102AB800000000000000000000000000000000000E
:102AC80000000000000000000000000000000000FE
:102AD80000000000000000000000000000000000EE
:102AE80000000000000000000000000000000000DE
:102AF80000000000000000000000000000000000CE
:102B08000000000000000000000000002502000096
:042B180001020000B6
:04000003000002BD3A
:00000001FF
