:020000022000DC
:1060000000000120BD620200E5620200E7620200BA
:10601000E9620200EB620200ED6202000000000093
:10602000000000000000000000000000EF6202001D
:10603000F162020000000000F3620200F56202005B
:10604000F7620200F7620200F7620200F7620200E4
:10605000F7620200F7620200F7620200F7620200D4
:10606000F7620200F7620200F7620200F7620200C4
:10607000F7620200F7620200F7620200F7620200B4
:10608000F7620200F7620200F7620200F7620200A4
:10609000F7620200F7620200FD670200F762020089
:1060A000F7620200F7620200F7620200F762020084
:1060B000F7620200F762020000000000000000002A
:1060C000F7620200F7620200F7620200F762020064
:1060D000F7620200F7620200F762020000000000AF
:1060E00000000000000000000000000000000000B0
:1060F00000000000000000000000000000000000A0
:10610000000000000000000000000000000000008F
:10611000000000000000000000000000000000007F
:10612000000000000000000000000000000000006F
:10613000000000000000000000000000000000005F
:10614000000000000000000000000000000000004F
:10615000000000000000000000000000000000003F
:10616000000000000000000000000000000000002F
:10617000000000000000000000000000000000001F
:10618000000000000000000000000000000000000F
:1061900000000000000000000000000000000000FF
:1061A00000000000000000000000000000000000EF
:1061B00000000000000000000000000000000000DF
:1061C00000000000000000000000000000000000CF
:1061D00000000000000000000000000000000000BF
:1061E00000000000000000000000000000000000AF
:1061F000000000000000000000000000000000009F
:1062000010B5054C237833B9044B13B10448AFF3F0
:1062100000800123237010BDD4590020000000002D
:106220006469020008B5034B1BB103490348AFF38F
:10623000008008BD00000000D859002064690200F9
:10624000A3F5803A704700BF174B002B08BF134BD4
:106250009D46FFF7F5FF00218B460F461348144A71
:10626000121A00F043FB0E4B002B00D098470D4B49
:10627000002B00D098470020002104000D000D489D
:10628000002802D00C48AFF3008000F00BFB200088
:10629000290000F0AFF800F0F1FA00BF000008009C
:1062A000000000000000000000000120D459002080
:1062B000F059002000000000000000000649074AD5
:1062C000074B9B1A03DD043BC858D050FBDC00F0A1
:1062D000A9F8FFF7B9FF00007869020068590020AB
:1062E000D4590020FEE7FEE7FEE7FEE7FEE7FEE703
:1062F000FEE7FEE7FEE7FEE7074B4FF0A041185C24
:10630000D1F804350122824022EA03001340C1F88B
:106310000805C1F80C35704718690200C20710B4AF
:106320001AD54FF0A04303224FF40031C3F844279D
:106330004FF48024C3F84827C3F84C27C3F85027EC
:10634000C3F808154FF480124FF40021C3F8084534
:10635000C3F80815C3F8082583070AD54FF0A043F2
:106360000C22C3F83427C3F83827C3F83C27C3F8F6
:1063700040275DF8044B704700B585B00346002107
:1063800001AA44F20100CDE90111039300F004F8E1
:1063900005B05DF804FB00BF72B6094BD3F8F030CE
:1063A000DB0700D500BEBFF34F8F0549054BCA6818
:1063B00002F4E0621343CB60BFF34F8F00BFFDE7F1
:1063C00000ED00E00400FA0501600B6843604A68D4
:1063D000934204BF00234360704700BF436843B14A
:1063E000026891680B4443605268934204BF0023E3
:1063F0004360704770B50120094DFFF78FFF45F0EE
:10640000010500263046FFF777FF4FF4FA744FF48A
:106410007A40A847013CFAD10136042EF2D1F0E7C8
:106420002069020010B44FF08053D3F830315A1C69
:1064300004BF4FF0704393F8E03F062B08D14FF0B4
:106440008053C24AD3F82433C3F30423C2F840353F
:106450004FF0704393F8E02F062A00F024814FF0AC
:106460008053D3F830315C1C04BF4FF0704393F875
:10647000E03F062B09D14FF080534FF08042D3F814
:106480004432C3F34233C2F83C354FF0704393F8C3
:10649000E02F062A00F0F2804FF08053D3F830311D
:1064A000581C04BF4FF0704393F8E03F062B08D10F
:1064B0004FF080430022C3F80C21C3F81021C3F829
:1064C00038254FF0704393F8E02F062A00F0B38090
:1064D0004FF08052D2F83031591C27D0062BD2F819
:1064E00034212DD09A4AD2F8883043F47003C2F890
:1064F0008830BFF34F8FBFF36F8F4FF08053D3F8C7
:106500003021062A00F0E0804FF01023D3F800225B
:10651000002AC0F23B81D3F80432002BC0F236814E
:106520008C4B8D4A1A605DF8044B70474FF07042F7
:1065300092F8E01FD2F8E82F0629D3D1C2F3031254
:10654000033A042A40F2DA804FF08053834AD3F8AA
:106550000414C2F82015D3F80814C2F82415D3F88F
:106560000C14C2F82815D3F81014C2F82C15D3F85F
:106570001414C2F83015D3F81814C2F83415D3F82F
:106580001C14C2F84015D3F82014C2F84415D3F8EF
:106590002414C2F84815D3F82814C2F84C15D3F8BF
:1065A0002C14C2F85015D3F83014C2F85415D3F88F
:1065B0003414C2F86015D3F83814C2F86415D3F84F
:1065C0003C14C2F86815D3F84014C2F86C15D3F81F
:1065D0004414D3F83031C2F870155C1C04BF4FF07E
:1065E000704393F8E03F062B7FF47CAF4FF080526E
:1065F0004FF08041D2F85832D2F8302103F04F03E7
:10660000501CC1F8E43E7FD0062A7FF46BAFD1F86E
:106610000034DA0700F184804FF08053D3F834312E
:10662000033B042B64D94E4AD2F83C3743F48063D1
:10663000C2F83C3756E7D3F8E83FC3F30313033BF4
:10664000042B3FF645AF474AD25C22B14FF080425F
:106650000321C2F8A015444AD35C002B3FF438AFA5
:10666000424B0524012000213F22C3F81046C3F805
:106670008806C3F81816C3F8142629E7D3F8E83FAC
:10668000C3F30313033B042B3FF606AF384AD35C36
:10669000002B3FF401AF2E4AD2F8FC3023F0807378
:1066A000C2F8FC30F8E6D3F8E83FC3F30313033B2A
:1066B000042B3FF6D4AE2F4AD35C002B3FF4CFAE71
:1066C0002D4B2E4A5A67CAE6D3F83431033B042BCC
:1066D00008D94FF010224FF08043D2F80822C3F8B7
:1066E000582511E7264AD35C002B3FF40DAFF0E7A5
:1066F000244AD35C002B3FF4F5AE94E722498A5C30
:10670000002A3FF46AAF1FE74FF0704393F8E03F71
:10671000062B7FF4E7AED1F80034DB077FF5E2AE5D
:106720004FF080534FF08042D3F830316FF00101C9
:10673000062BC2F800147FF4D5AE4FF08053D3F887
:106740003431033B042B3FF66EAFD1E700300140FC
:1067500000ED00E0685900200090D00300C0004028
:1067600000100040406902004069020000500040F3
:10677000406902004069020000C007400DF0ADBA58
:10678000386902003069020028690200184A0123B2
:10679000C2F80435D2F80034002BFBD04FF01023A0
:1067A0001521134AC3F80012D2F80034002BFBD095
:1067B0004FF0102315210E4AC3F80412D2F800340A
:1067C000002BFBD000230A49C2F80435D1F800346D
:1067D000002BFBD0BFF34F8F0649074BCA6802F46A
:1067E000E0621343CB60BFF34F8F00BFFDE700BFF4
:1067F00000E0014000ED00E00400FA0500B583B0C0
:1068000008496846FFF7E0FD019B43B1D3E900204A
:1068100090476846FFF7E2FD019B002BF6D103B0DD
:106820005DF804FB486902004BDF704710B5124C5D
:1068300084B001A8FFF7F8FFA8B9214602A8FFF726
:10684000C3FD039B002BF4D0D3E900310198984796
:1068500002A8FFF7C3FD039B002BF5D101A8FFF7AA
:10686000E3FF0028E9D0052801D104B010BD04B031
:10687000BDE81040FFF780BD5469020008B5074B22
:10688000044613B10021AFF30080054B1868836AFA
:1068900003B19847204600F031F800BF0000000027
:1068A0006069020070B50D4D0D4C641BA4100026EC
:1068B000A64209D10B4D0C4C00F022F8641BA41029
:1068C0000026A64205D170BD55F8043B9847013615
:1068D000EEE755F8043B98470136F2E7CC59002023
:1068E000CC590020CC590020D05900200244034646
:1068F000934200D1704703F8011BF9E7FEE700BFA0
:10690000F8B500BFF8BC08BC9E467047F8B500BF9C
:10691000F8BC08BC9E46704711121314000000001A
:106920000338FDD87047000000000101010000009D
:106930000000000101000000000000000100000054
:106940000100000000000000686902007069020098
:106950000800000068690200686902000800000081
:086960006C590020000000004A
:086968002D6802000000000090
:08697000D0F8FF7F01000000D8
:106978000090D003000000000000000000000000AC
:1069880000000000000000000000000000000000FF
:1069980000000000000000000000000000000000EF
:1069A80000000000000000000000000000000000DF
:1069B80000000000000000000000000000000000CF
:1069C80000000000000000000000000000000000BF
:0C69D800000000002562020001620200C5
:04000003200062BDBA
:00000001FF
